{"abi":[{"type":"function","name":"IS_EVEN_ID","inputs":[],"outputs":[{"name":"","type":"bytes32","internalType":"bytes32"}],"stateMutability":"view"}],"bytecode":{"object":"0x60a6610038600b82828239805160001a607314602b57634e487b7160e01b600052600060045260246000fd5b30600052607381538281f3fe730000000000000000000000000000000000000000301460806040526004361060335760003560e01c806387bbf967146038575b600080fd5b605e7fe72dd268dd93825ab715617b30e1b313d1b9671500b55d17093ac583dec808cf81565b60405190815260200160405180910390f3fea26469706673582212208a8de54e0162f305756ced4071b0e9e28647eb6aafdffaf21b98daf13ec74a0c64736f6c63430008150033","linkReferences":{}},"methodIdentifiers":{"IS_EVEN_ID()":"87bbf967"},"id":1}