{"abi":[{"type":"function","name":"IS_EVEN_PATH","inputs":[],"outputs":[{"name":"","type":"string","internalType":"string"}],"stateMutability":"view"}],"bytecode":{"object":"0x61016161003a600b82828239805160001a60731461002d57634e487b7160e01b600052600060045260246000fd5b30600052607381538281f3fe73000000000000000000000000000000000000000030146080604052600436106100355760003560e01c8063bd4af8941461003a575b600080fd5b610042610058565b60405161004f9190610074565b60405180910390f35b6040518060a00160405280606981526020016100c36069913981565b600060208083528351808285015260005b818110156100a157858101830151858201604001528201610085565b506000604082860101526040601f19601f830116850101925050509291505056fe2f686f6d652f6a6f73732f6465762f64656e7665722f626f6e7361692d666f756e6472792d74656d706c6174652f7461726765742f72697363762d67756573742f72697363763332696d2d72697363302d7a6b766d2d656c662f72656c656173652f69732d6576656ea26469706673582212204b9849178329aefbe35e17e48c03eda033f78a3b8b4c752aaadf7905cc84b9eb64736f6c63430008150033","linkReferences":{}},"methodIdentifiers":{"IS_EVEN_PATH()":"bd4af894"},"id":35}