{"abi":[{"type":"function","name":"verify","inputs":[{"name":"seal","type":"bytes","internalType":"bytes"},{"name":"","type":"bytes32","internalType":"bytes32"},{"name":"postStateDigest","type":"bytes32","internalType":"bytes32"},{"name":"","type":"bytes32","internalType":"bytes32"}],"outputs":[{"name":"","type":"bool","internalType":"bool"}],"stateMutability":"pure"},{"type":"function","name":"verify_integrity","inputs":[{"name":"receipt","type":"tuple","internalType":"struct Receipt","components":[{"name":"seal","type":"bytes","internalType":"bytes"},{"name":"claim","type":"tuple","internalType":"struct ReceiptClaim","components":[{"name":"preStateDigest","type":"bytes32","internalType":"bytes32"},{"name":"postStateDigest","type":"bytes32","internalType":"bytes32"},{"name":"exitCode","type":"tuple","internalType":"struct ExitCode","components":[{"name":"system","type":"uint8","internalType":"enum SystemExitCode"},{"name":"user","type":"uint8","internalType":"uint8"}]},{"name":"input","type":"bytes32","internalType":"bytes32"},{"name":"output","type":"bytes32","internalType":"bytes32"}]}]}],"outputs":[{"name":"","type":"bool","internalType":"bool"}],"stateMutability":"pure"}],"bytecode":{"object":"0x608060405234801561001057600080fd5b50610364806100206000396000f3fe608060405234801561001057600080fd5b50600436106100365760003560e01c80631bb8068f1461003b5780636efef00914610062575b600080fd5b61004e6100493660046101d4565b610075565b604051901515815260200160405180910390f35b61004e6100703660046102a6565b610093565b80515160009015801561008d57506020808301510151155b92915050565b6000841580156100a1575082155b9695505050505050565b634e487b7160e01b600052604160045260246000fd5b60405160a0810167ffffffffffffffff811182821017156100e4576100e46100ab565b60405290565b6040805190810167ffffffffffffffff811182821017156100e4576100e46100ab565b604051601f8201601f1916810167ffffffffffffffff81118282101715610136576101366100ab565b604052919050565b600081830360c081121561015157600080fd5b6101596100c1565b915082358252602083013560208301526040603f198201121561017b57600080fd5b506101846100ea565b60408301356003811061019657600080fd5b8152606083013560ff811681146101ac57600080fd5b80602083015250806040830152506080820135606082015260a0820135608082015292915050565b600060208083850312156101e757600080fd5b823567ffffffffffffffff808211156101ff57600080fd5b9084019060e0828703121561021357600080fd5b61021b6100ea565b82358281111561022a57600080fd5b8301601f8101881361023b57600080fd5b80358381111561024d5761024d6100ab565b61025f601f8201601f1916870161010d565b9350808452888682840101111561027557600080fd5b80868301878601376000908401860152508181526102958784860161013e565b848201528094505050505092915050565b6000806000806000608086880312156102be57600080fd5b853567ffffffffffffffff808211156102d657600080fd5b818801915088601f8301126102ea57600080fd5b8135818111156102f957600080fd5b89602082850101111561030b57600080fd5b60209283019a90995091880135976040810135975060600135955090935050505056fea26469706673582212207e19e0299c90da636480362882c5a1985215c1de271dfff949baf91695a9fb0364736f6c63430008150033","linkReferences":{}},"methodIdentifiers":{"verify(bytes,bytes32,bytes32,bytes32)":"6efef009","verify_integrity((bytes,(bytes32,bytes32,(uint8,uint8),bytes32,bytes32)))":"1bb8068f"},"id":29}